:100000000C9430200C945B200C945B200C945B20AF
:100010000C945B200C945B200C945B200C945B2074
:100020000C945B200C9413E70C945B200C945B20E5
:100030000C945B200C94A8890C945B200C945B209E
:100040000C945B200C944D920C9429E40C945B204E
:100050000C9496380C945B200C945B200C945B20E1
:100060000C945B200C945B200C948EDC0C945B2035
:100070000C945B200C945B200C945B200C945B2014
:100080000C94E9870C945B200C945B20084AD73BC6
:100090003BCE016E84BCBFFDC12F3D6C74319ABD57
:1000A00056833DDA3D00C77F11BED9E4BB4C3E917B
:1000B0006BAAAABE000000803F05A84CCDB2D44E6A
:1000C000B93836A9020C50B9918688083CA6AAAA6C
:1000D0002ABE000000803F4D383420582059205A55
:1000E0002045006563686F3A0043616E6E6F74204F
:1000F000656E746572207375626469723A20004D92
:100100003234004D3233202573006175746F2569D8
:100110002E67004572726F723A006572726F7220BC
:1001200077726974696E6720746F2066696C650008
:100130004E6F74205344207072696E74696E67004C
:100140002F005344207072696E74696E6720627963
:10015000746520002E0044656C6574696F6E2066BE
:1001600061696C65642C2046696C653A20004669BB
:100170006C652064656C657465643A002E006F7070
:10018000656E206661696C65642C2046696C653A11
:10019000200057726974696E6720746F2066696CFD
:1001A000653A20002E006F70656E206661696C658F
:1001B000642C2046696C653A20002E006F70656ED5
:1001C000206661696C65642C2046696C653A200084
:1001D00046696C652073656C6563746564002053C3
:1001E000697A653A200046696C65206F70656E65B6
:1001F000643A20002E006F70656E206661696C6540
:10020000642C2046696C653A20004E6F7720667238
:100210006573682066696C653A20004E6F772064CC
:100220006F696E672066696C653A20002220706FE6
:1002300073002220706172656E743A220053554239
:10024000524F5554494E452043414C4C20746172E5
:100250006765743A2200747279696E6720746F2042
:1002600063616C6C207375622D67636F64652066D3
:10027000696C6573207769746820746F6F206D6195
:100280006E79206C6576656C732E204D4158206C1C
:100290006576656C2069733A00534420636172642B
:1002A000206F6B006F70656E526F6F7420666169AE
:1002B0006C656400766F6C756D652E696E6974206F
:1002C0006661696C656400534420696E69742066D8
:1002D00061696C006563686F3A0048617264636FBE
:1002E0006465642044656661756C7420536574743C
:1002F000696E6773204C6F61646564002044002060
:1003000049002020204D33303120500050494420F6
:1003100073657474696E67733A00205A002059003F
:1003200020204D323036205800486F6D65206F66B2
:100330006673657420286D6D293A00204500205AA7
:100340000020580020420020540020204D3230353B
:10035000205300416476616E636564207661726942
:1003600061626C65733A20533D4D696E2066656528
:10037000647261746520286D6D2F73292C20543DA3
:100380004D696E2074726176656C20666565647275
:1003900061746520286D6D2F73292C20423D6D6995
:1003A0006E696D756D207365676D656E7420746917
:1003B0006D6520286D73292C20583D6D6178696D1D
:1003C000756D205859206A65726B20286D6D2F73EA
:1003D000292C20205A3D6D6178696D756D205A2059
:1003E0006A65726B20286D6D2F73292C2020453D86
:1003F0006D6178696D756D2045206A65726B202886
:100400006D6D2F73290020540020204D3230342090
:100410005300416363656C65726174696F6E3A2065
:10042000533D616363656C65726174696F6E2C2006
:10043000543D7265747261637420616363656C65B9
:10044000726174696F6E00204500205A00205900C7
:1004500020204D3230312058004D6178696D756D26
:1004600020416363656C65726174696F6E20286DED
:100470006D2F7332293A00204500205A0020590080
:1004800020204D3230332058004D6178696D756DF4
:100490002066656564726174657320286D6D2F73C5
:1004A000293A00204500205A0020590020204D39CB
:1004B0003220580053746570732070657220756E19
:1004C00069743A006563686F3A004572726F723AF8
:1004D0000053544F505045442E20005072696E74A2
:1004E00065722073746F7070656420647565207424
:1004F0006F206572726F72732E204669782074685F
:1005000065206572726F7220616E6420757365205C
:100510004D39393920746F20726573746172742E8D
:10052000202854656D7065726174757265206973F9
:100530002072657365742E20536574206974206180
:10054000667465722072657374617274696E67296E
:10055000004B494C4C45442E20005072696E746526
:10056000722068616C7465642E206B696C6C28293C
:100570002063616C6C656421006F6B00526573656C
:100580006E643A20002200556E6B6E6F776E2063AA
:100590006F6D6D616E643A2022004368616E67651D
:1005A0002066696C616D656E74006C636420636FB6
:1005B0006E74726173742076616C75653A20007A8E
:1005C0005F6D696E3A2000795F6D696E3A20007840
:1005D0005F6D696E3A20005A3A00593A0020436F25
:1005E000756E7420583A2000453A005A3A00593A3C
:1005F00000583A004649524D574152455F4E414DD1
:10060000453A4D61726C696E2056313B20537072D1
:10061000696E7465722F6772626C206D61736875A4
:100620007020666F722067656E36204649524D57BE
:100630004152455F55524C3A687474703A2F2F7787
:1006400077772E6D656E64656C2D70617274732E94
:10065000636F6D2050524F544F434F4C5F5645527D
:1006600053494F4E3A312E30204D414348494E4573
:100670005F545950453A3344205072696E74657224
:100680002045585452554445525F434F554E543AB5
:100690003120555549443A30303030303030302DEB
:1006A000303030302D303030302D303030302D3053
:1006B00030303030303030303030300A0033442089
:1006C0005072696E746572204F66662E00426564D2
:1006D00020646F6E652E0020423A0020453A005497
:1006E0003A004265642048656174696E672E00486F
:1006F000656174696E6720646F6E652E0020573ADD
:100700000020453A00543A0048656174696E672ECE
:100710002E2E002042403A0020403A00202F003A7E
:1007200000205400202F0020423A00202F006F6B41
:1007300020543A002569206D696E2C2025692073AC
:10074000656300456E642066696C65206C6973742E
:1007500000426567696E2066696C65206C69737418
:10076000004E6F206D6F76652E00526573756D6952
:100770006E67207072696E74005761697420666FCD
:100780007220757365722E2E2E00536C6565702E67
:100790002E2E00FFFFFF0000A0430000A04300003A
:1007A000D2430000A0400000A0400000803F0000B5
:1007B0000000000000000000000000000000000039
:1007C0000000000000000000A0430000A043000063
:1007D000D243256920686F757273202569206D6981
:1007E0006E7574657300446F6E65207072696E7407
:1007F000696E672066696C650053544F50504544DC
:100800002E20005072696E7465722073746F707060
:1008100065642064756520746F206572726F7273F1
:100820002E2046697820746865206572726F722088
:10083000616E6420757365204D39393920746F20DD
:10084000726573746172742E202854656D706572C0
:1008500061747572652069732072657365742E20EA
:1008600053657420697420616674657220726573C3
:1008700074617274696E6729006F6B004E6F204C53
:10088000696E65204E756D626572207769746820A7
:10089000636865636B73756D2C204C617374204CB9
:1008A000696E653A20004E6F20436865636B73750F
:1008B0006D2077697468206C696E65206E756D6255
:1008C00065722C204C617374204C696E653A20006F
:1008D000636865636B73756D206D69736D617463B7
:1008E000682C204C617374204C696E653A20004C72
:1008F000696E65204E756D626572206973206E6F3A
:1009000074204C617374204C696E65204E756D6265
:1009100065722B312C204C617374204C696E653AE2
:1009200020004D31313000446F6E6520736176696F
:100930006E672066696C652E006F6B004D32390062
:100940002020506C616E6E657242756666657242FB
:10095000797465733A20002046726565204D656D97
:100960006F72793A20004F6374203239203230316F
:100970003600436F6D70696C65643A2000286E6FB5
:100980006E652C2064656661756C7420636F6E669D
:1009900069672900207C20417574686F723A2000D5
:1009A0004F637420323920323031362031303A32C0
:1009B000323A343600204C6173742055706461748F
:1009C00065643A2000312E302E30004D61726C6922
:1009D0006E200020536F66747761726520526573D4
:1009E000657400205761746368646F672052657393
:1009F0006574002042726F776E206F7574205265A7
:100A0000736574002045787465726E616C20526560
:100A100073657400506F77657255700073746172FE
:100A200074002200656E717565696E672022002270
:100A300000656E717565696E672022006563686F79
:100A40003A0020746F6F206C6F6E67206578747247
:100A50007573696F6E2070726576656E746564007B
:100A600020636F6C6420657874727573696F6E2093
:100A700070726576656E746564007C3C3E5E2B3DED
:100A80003F2F5B5D3B2C2A225C0045313A2000451C
:100A9000303A20005A3A2000593A2000583A2000B3
:100AA0004D53312C4D53322050696E730A0024F49B
:100AB00004D9201BC40C5C0E9804C4095F026507AE
:100AC0007101F405F900FB04B30048048700C10379
:100AD00069005803550003034500BE023A00840232
:100AE000310053022A002902250004022000E401FB
:100AF0001C00C8011900AF011700980114008401FF
:100B00001300710110006101100051010E0043013A
:100B10000D0036010B002B010B0020010B0015010D
:100B200009000C01090003010800FB000800F300A4
:100B30000800EB000700E4000600DE000600D80015
:100B40000600D2000600CC000500C7000500C20068
:100B50000500BD000400B9000400B5000400B100A8
:100B60000400AD000400A9000400A5000300A200D9
:100B700003009F0004009B00030098000300950001
:100B8000020093000300900003008D0002008B0020
:100B90000300880002008600020084000300810038
:100BA00002007F0002007D0002007B00020079004D
:100BB000020077000100760002007400020072005B
:100BC0000100710002006F0002006D0001006C0066
:100BD00002006A000100690002006700010066006F
:100BE0000100650001006400020062000100610074
:100BF0000100600001005F0002005D0001005C0078
:100C000001005B0001005A0001005900010058007A
:100C1000010057000100560001005500010054007A
:100C20000100530000005300010052000100510078
:100C30000100500001004F0001004E0000004E0076
:100C400001004D0001004C0001004B0000004B0072
:100C500001004A000100490001004800000048006E
:100C60000100470001004600000046000100450069
:100C70000000450001004400010043000000430063
:100C8000010042000000420001004100000041005C
:100C90000100400001003F0000003F0001003E0055
:100CA00000003E0001003D0000003D0001003C004E
:100CB00000003C0000003C0001003B0000003B0045
:100CC00001003A0000003A0001003900000039003C
:100CD0000100380000003800000038000100370033
:100CE000000037000100360000003600000036002A
:100CF000010035000000350000003500010034001F
:100D00000000340000003400010033000000330014
:100D10000000330001003200000032000000320009
:100D200001003100000031000000310001003000FE
:100D3000000030000000300001002F0000002F00F4
:100D400000002F0000002F0001002E0000002E00E8
:100D500000002E0001002D0000002D0000002D00DD
:100D600000002D0001002C0000002C0000002C00D1
:100D700000002C0001002B0000002B0000002B00C5
:100D800000002B0001002A0000002A0000002A00B9
:100D900000002A00010029000000290000002900AD
:100DA00000002900000029000100280000002800A0
:100DB0000000280000002800000028000100270093
:100DC0000000270000002700000027000000270087
:100DD000010026000000260000002600000026007A
:100DE000000026000100250000002500000025006D
:100DF000000025000000250000002500010024005F
:100E00000000240000002400000024000000240052
:100E10000100230000002300000023000000230045
:100E20000000230000002300000023000100220036
:100E3000000022000000220000002200000022002A
:100E4000000022000100210000002100000021001C
:100E5000000021000000210000002100000021000E
:100E60000100200000002000000020000000200001
:100E700000002000000020000000200000002000F2
:100E800001001F0000001F0000001F0000001F00E5
:100E900000001F0000001F0000001F0001001E00D6
:100EA00000001E0000001E0000001E00000024F4D0
:100EB000D43050C38E20C2A24017828B7011127A98
:100EC000910D816CD90AA861E108C7586607615184
:100ED00043061E4B5D05C145A7041A411104093D97
:100EE0009803713931034036DB0265339102D43007
:100EF0005402802E1D02632CEE01752AC501B02814
:100F0000A001102781018F2564012B244B01E022D1
:100F10003401AC211F018D200D01801FFC00841EB7
:100F2000ED00971DDF00B81CD200E61BC600201B99
:100F3000BC00641AB200B219A8000A19A0006A180D
:100F40009900D117910040178B00B5168400311617
:100F50007E00B31579003A157300C7146F0058145A
:100F60006A00EE1366008813630025135E00C71243
:100F70005B006C12570015125400C1115100701122
:100F80004F0021114B00D61049008D10470046102C
:100F9000440002104200C00F4000800F3E00420F8C
:100FA0003C00060F3B00CB0E3800930E37005C0E62
:100FB0003500270E3400F30D3200C10D3100900DC5
:100FC0003000600D2E00320D2D00050D2C00D90CC7
:100FD0002B00AE0C2900850C29005C0C2700350C79
:100FE00027000E0C2600E80B2400C40B2400A00BE5
:100FF00023007D0B23005A0B2100390B2100180B15
:101000002000F80A1F00D90A1E00BB0A1E009D0A14
:101010001D00800A1D00630A1C00470A1B002C0AE1
:101020001B00110A1A00F7091A00DD091900C4098A
:101030001900AB091900920917007B091800630910
:1010400017004C09160036091600200916000A0977
:101050001500F5081500E0081400CC081400B808C5
:101060001400A4081400900813007D0812006B08F7
:101070001300580812004608120034081100230813
:1010800011001208110001081100F0071000E0071C
:101090001000D0071000C0071000B0070F00A10714
:1010A000100091070E0083070F0074070F006507FB
:1010B0000E0057070E0049070E003B070D002E07D4
:1010C0000E0020070D0013070D0006070D00F9069E
:1010D0000C00ED060D00E0060C00D4060C00C8065E
:1010E0000C00BC060C00B0060C00A4060B00990610
:1010F0000C008D060B0082060B0077060B006C06B9
:101100000B0061060A0057060B004C060A00420657
:101110000A0038060A002E060A0024060A001A06EB
:101120000A001006090007060A00FD050900F4057B
:101130000900EB050900E2050900D9050900D00501
:101140000900C7050900BE050900B5050800AD0581
:101150000800A50509009C050800940508008C05F9
:101160000800840508007C050800740508006C056B
:101170000700650508005D050700560508004E05D7
:10118000070047050700400508003805070031053E
:1011900007002A050700230507001C0506001605A1
:1011A00007000F0507000805060002050700FB04FD
:1011B0000600F5040700EE040600E8040600E20459
:1011C0000700DB040600D5040600CF040600C904AE
:1011D0000600C3040600BD040600B7040600B104FF
:1011E0000500AC040600A6040600A00405009B044C
:1011F000060095040500900406008A040500850495
:101200000500800406007A040500750405007004DA
:1012100005006B04050066040500610405005C041C
:10122000050057040500520405004D04050048045C
:101230000500430405003E0404003A04050035049B
:101240000500300404002C040500270404002304D6
:1012500005001E0404001A0404001604050011040D
:1012600004000D0404000904050004040400000443
:101270000400FC030400F8030400F4030400F0037A
:101280000400EC030400E8030400E4030400E003AA
:101290000400DC030400D8030400D4030400D003DA
:1012A0000400CC030400C8030300C5030300656306
:1012B000686F3A00656E6473746F70732068697448
:1012C0003A205A00205A3A00656E6473746F707346
:1012D000206869743A20590020593A00656E647399
:1012E000746F7073206869743A20580020583A006F
:1012F000656E6473746F7073206869743A2000457A
:1013000072726F723A004572723A204D41585445DC
:101310004D50204245440054656D7065726174758E
:101320007265206865617465642062656420737706
:10133000697463686564206F66662E204D41585459
:10134000454D50207472696767657265642021217C
:10135000004572723A204D494E54454D50003A2096
:101360004578747275646572207377697463686513
:1013700064206F66662E204D494E54454D502074B2
:1013800072696767657265642021004572723A2050
:101390004D415854454D50003A204578747275645B
:1013A0006572207377697463686564206F66662E62
:1013B000204D415854454D502074726967676572DD
:1013C0006564202100202D20496E76616C696420BF
:1013D0006578747275646572206E756D62657220D1
:1013E000210070012C0190012701B0012201C001F0
:1013F0001D01F00118011002130130020E016002FC
:10140000090190020401C002FF000003FA0040033A
:10141000F5008003F000D003EB002004E600700428
:10142000E100E004DC004005D700C005D200400622
:10143000CD00D006C8008007C3003008BE00F00809
:10144000B900C009B400B00AAF00B00BAA00D00CBC
:10145000A500000EA000500F9B00C0109600501277
:10146000910000148C00C0158700B0178200B019DD
:101470007D00D01B7800001E730040206E0090227B
:101480006900F024640040275F0090295A00E02B97
:101490005500102E500020304B0010324600E03333
:1014A000410090353C001037370070383200A039C9
:1014B0002D00B03A2800A03B2300603C1E00103DE8
:1014C0001900903D1400103E0F00703E0A00C03E0F
:1014D0000500003F0000504944204175746F747549
:1014E0006E652066696E6973686564212050757445
:1014F00020746865204B702C204B6920616E64203D
:101500004B6420636F6E7374616E747320696E74C4
:101510006F20436F6E66696775726174696F6E2EB6
:101520006800504944204175746F74756E6520667B
:1015300061696C6564212074696D656F7574002044
:10154000403A006F6B20543A006F6B20423A0050D3
:101550004944204175746F74756E65206661696CCD
:101560006564212054656D706572617475726520C3
:10157000746F6F206869676800204B643A20002010
:101580004B693A2000204B703A200020436C617375
:1015900069632050494420002054753A2000204BB4
:1015A000753A2000206D61783A2000206D696E3A0E
:1015B000200020643A200020626961733A20000014
:1015C0000000000000000000000000003FFFF000ED
:1015D0000000000000000000000000003800700063
:1015E00000000000000000000000000030FC30009F
:1015F00000000000000000000000000020FC1000BF
:101600003E0FF000000000000000000020781000F5
:10161000C18618000000000000000000203010000B
:10162000C1860C0000000000000000002C00D0006B
:10163000018604001FE00000104100002E31D000A0
:10164000030604003FF00000082080002F7BD0003C
:101650001F0604003FF00000082080002F7BD00010
:10166000030604003FF00000104100002E31D000BE
:10167000018604001FE00000208200002C00D00042
:10168000C1860C001FE00000410400002030100063
:10169000C18618003FF000004104000020781000CF
:1016A0003E0FF0003FF000002082000020FC100000
:1016B000000000003FF000001041000030FC30004E
:1016C000000000000FC000000000000038007000A3
:1016D0000000000007800000FFFFC0003FFFF00097
:1016E0000000000003000000FFFFC0000000000039
:1016F0000000000000000000000000003FFFF000BC
:101700000000000000000000000000003800700031
:1017100000000000000000000000000030FC30006D
:1017200000000000000000000000000020FC10008D
:101730003E0FF000000000000000000020781000C4
:10174000C1861800000000000000000020301000DA
:10175000C1860C0000000000000000002C00D0003A
:10176000018604001FE00000104100002E31D0006F
:10177000030604003FF00000082080002F7BD0000B
:101780001F0604003FF00000082080002F7BD000DF
:10179000030604003FF00000104100002E31D0008D
:1017A000018604001FE00000208200002C00D00011
:1017B000C1860C001FE00000410400002030100032
:1017C000C18618003FF0000041040000207810009E
:1017D0003E0FF0003FF000002082000020FC1000CF
:1017E000000000003FF000001041000030FC30001D
:1017F000000000000FC00000000000003800700072
:101800000000000007800000FFFFC0003FFFF00065
:101810000000000003000000FFFFC00000000059AE
:1018200000B02000B02000B02000B020002D2D3AE4
:101830002D2D004D323100496E69742E2053442DF8
:1018400043617264004E6F2043617264004D323117
:10185000004368616E67652053442D4361726400E4
:101860005072696E742066726F6D20534400537419
:101870006F70205072696E7400526573756D6520CB
:101880005072696E74005061757365205072696E94
:101890007400436F6E74726F6C0050726570617289
:1018A000650054756E6500496E666F2073637265DE
:1018B000656E00F92E2E00F8526566726573680039
:1018C0004D61696E004D3234004D32332025730076
:1018D0004D383420582059205A20450052657374E1
:1018E0006F7265204661696C73616665004C4344A4
:1018F00020636F6E7472617374004D6F74696F6EE4
:101900000054656D7065726174757265004D616932
:101910006E00436F6E74726173740045737465700A
:10192000732F6D6D004573746570732F6D6D005A64
:1019300073746570732F6D6D005A73746570732FB7
:101940006D6D005973746570732F6D6D00597374EC
:101950006570732F6D6D005873746570732F6D6DA6
:10196000005873746570732F6D6D00412D7265742E
:101970007261637400412D72657472616374004119
:101980006D6178206500416D6178206500416D6171
:1019900078207A00416D6178207A00416D6178206D
:1019A0007900416D6178207900416D61782078007F
:1019B000416D61782078005654726176206D696EB1
:1019C000005654726176206D696E00566D696E0026
:1019D000566D696E00566D6178206500566D6178B0
:1019E000206500566D6178207A00566D6178207A06
:1019F00000566D6178207900566D61782079005627
:101A00006D6178207800566D617820780056652DDC
:101A10006A65726B0056652D6A65726B00567A2D89
:101A20006A65726B00567A2D6A65726B005678791A
:101A30002D6A65726B005678792D6A65726B00416C
:101A40006363656C00416363656C005A204F666692
:101A5000736574005A204F666673657400436F6E39
:101A600074726F6C005072656865617420414253F6
:101A700020436F6E66005072656865617420504C3B
:101A80004120436F6E66005049442D430050494445
:101A90002D43005049442D44005049442D440050EA
:101AA00049442D49005049442D49005049442D5086
:101AB000005049442D5000200220466163740020EC
:101AC000022046616374002002204D6178002002EC
:101AD000204D6178002002204D696E002002204DCB
:101AE000696E004F6666004F6E20004F6666004FBD
:101AF0006E20004175746F74656D700046616E20D4
:101B000073706565640046616E207370656564007E
:101B100042656400426564004E6F7A7A6C65004EDF
:101B20006F7A7A6C6500436F6E74726F6C004265F9
:101B30006400426564004E6F7A7A6C65004E6F7A7D
:101B40007A6C650046616E2073706565640046615D
:101B50006E2073706565640054656D7065726174A4
:101B60007572650042656400426564004E6F7A7A62
:101B70006C65004E6F7A7A6C650046616E207370FA
:101B80006565640046616E20737065656400546528
:101B90006D7065726174757265004D6F7665204178
:101BA00078697300436F6F6C646F776E0050726575
:101BB00068656174204142530050726568656174C4
:101BC00020504C4100473238004175746F20486FF7
:101BD0006D65004D38340044697361626C65205353
:101BE00074657070657273004D61696E004D6F763B
:101BF0006520302E316D6D004D6F766520316D6D35
:101C0000004D6F76652031306D6D005072657061EA
:101C10007265004578747275646572004D6F766503
:101C2000205A004D6F76652059004D6F766520581B
:101C3000004D6F7665204178697300457874727540
:101C4000646572005A00590058004D363030004328
:101C500068616E67652066696C616D656E740046CB
:101C60006C6F7700466C6F770046616E207370650D
:101C700065640046616E207370656564004265644A
:101C800000426564004E6F7A7A6C65004E6F7A7A16
:101C90006C65005370656564005370656564004D44
:101CA00061696E00000000000000000000000000FC
:101CB0000000000000000000000000000000000024
:101CC0000000000000000000000000000000000014
:101CD0000000000000000000000000000000000004
:101CE00000000000000000000000000000000000F4
:101CF00000000000000000000000000000000000E4
:101D000000000000000000000000000000000000D3
:101D100000000000000000000000000000000000C3
:101D200000000000000000000000000000000000B3
:101D300000000000000000000000000000000000A3
:101D40000000000000000000000000000000000093
:101D50000000000000000000000000000000000083
:101D60000000000000000000000000000000000073
:101D70000000000000000000000000000000000063
:101D80000000000000000000000000000000000053
:101D90000000000000000000000000000000000043
:101DA0000000000000000000000000000000000033
:101DB0000000000000000000000000000000000023
:101DC0000000000000000000000000000000000013
:101DD0000000000000000000000000000000000003
:101DE00000000000000000000000000000000000F3
:101DF0000000000000000000000000003C000000A7
:101E0000000000000007E1FF8007FC003C0000002C
:101E100000000000000FF1FFE007FF003C0001C0E0
:101E200000000000000FF9FFF007FF00000003C0F2
:101E300000000000000879E1F8078F80000003C06F
:101E400000000000000079E0F80787BFFCF7CFF042
:101E5000F87F80000000F9E0780787BFFCFFEFF310
:101E6000FE7F80000007F1E07C078FBFFCFFEFF7EB
:101E7000FE7F80000007E1E07C07FF3E3CF9E3C7FE
:101E80008F7C00000007F1E07C07FE3C3CF1E3C7DB
:101E9000FF780000000079E07807FC3C3CF1E3CFDC
:101EA000FF780000000079E0F807803C3CF1E3C7D0
:101EB00080780000001879E1F007803C3CF1E3C72E
:101EC00086780000001FF9FFF007803C3CF1E3F743
:101ED000FE780000001FF1FFE007803C3CF1E3F3D7
:101EE000FE780000000FE1FF8007803C3CF1E1F14B
:101EF000FC7800000000000000000000000000006E
:101F000000000000000000000000000000000000D1
:101F100000000000000000000000000000000000C1
:101F200000000000000000000000000000000000B1
:101F300000000000000000000000000000000000A1
:101F40000000000000000000000000000000000091
:101F50000000000000000000000000000000000081
:101F60000000000000000000000000000000000071
:101F70000000000000000000000000000000000061
:101F80000000000000000000000000000000000051
:101F90000000000000000000000000000000000041
:101FA0000000000000000000000000000000000031
:101FB0000000000000000000000000000000000021
:101FC0000000000000000000000000000000000011
:101FD0000000000000000000000000000000000001
:101FE00000000000000000000000000000000000F1
:101FF00000000000000000000000000000000000E1
:1020000000000000000000000000000000000000D0
:1020100000000000000000000000000000000000C0
:1020200000000000000000000000000000000000B0
:1020300000000000000000000000000000000000A0
:102040000000000000000000000000000000000090
:102050000000000000000000000000000000000080
:102060000000000000000000000000000000000070
:102070000000000000000000000000000000000060
:102080000000000000000000000000000000000050
:102090000000000000000000000000000000000040
:1020A0000000000000060900FE06018902FE20FF74
:1020B000FE07FE06FE0000000600070106060602F7
:1020C00000808080800080030303060103A0A0A09D
:1020D0000507070600FF5050F850F8505005090951
:1020E0000600FE2070A8A07028A870200608080628
:1020F00000FF40A84810204854080507070600FFC5
:1021000060909060989068010303060203808080CD
:102110000207070602FF4080808080804002070798
:102120000602FF8040404040408005050506000053
:102130008850F850880505050600002020F820206A
:102140000204040602FEC0404080050101060002B0
:10215000F8020202060200C0C004060606010010D2
:102160001020408080040606060100609090909048
:102170006003060606010040C0404040E004060639
:102180000601006090102040F0040606060100F0F1
:1021900020601010E005060606000010305090F890
:1021A00010040606060100F080E01010E0040606A8
:1021B0000601006080E0909060040606060100F0D1
:1021C00010102040400406060601006090609090C8
:1021D000600406060601006090907010600205051C
:1021E000060200C0C000C0C00207070602FEC0C051
:1021F00000C040408005050506000018608060189A
:10220000050303060001F800F8050505060000C0F7
:10221000300830C0040707060100609010604000DD
:10222000400506060600007090A8B08070050606FE
:10223000060000205088F88888050606060000F091
:1022400088F08888F004060606010060908080907F
:1022500060040606060100E090909090E0040606F7
:10226000060100F080E08080F0040606060100F020
:1022700080E0808080040606060100609080B090B7
:10228000600406060601009090F090909003060608
:10229000060100E040404040E00506060600003828
:1022A000101010906004060606010090A0C0A090D7
:1022B000900406060601008080808080F0050606F6
:1022C00006000088D8A8A8888804060606010090A1
:1022D000D0B0909090050606060000708888888827
:1022E00070040606060100E09090E0808004070775
:1022F0000601FF609090D0B0601004060606010051
:10230000E09090E090900406060601006090402066
:102310009060050606060000F82020202020040614
:102320000606010090909090906004060606010059
:10233000909090F060600506060600008888A8A8C6
:10234000D88805060606000088502020508805061B
:10235000060600008888502020200406060601009A
:10236000F010204080F0030606060100E080808027
:1023700080E004060606010080804020101003065D
:1023800006060100E020202020E0050303060003EC
:102390002050880501010600FEF802020206020430
:1023A0008040040404060100709090700406060644
:1023B00001008080E09090E0040404060100708039
:1023C00080700406060601001010709090700404DE
:1023D0000406010060B0C07004060606010020502B
:1023E00040E040400406060601FE609090701060D8
:1023F0000406060601008080E09090900306060621
:1024000001004000C04040E00308080601FE200033
:1024100060202020A0400406060601008080A0C0A5
:10242000A090030606060100C040404040E00504BD
:1024300004060000D0A8A888040404060100E09067
:102440009090040404060100609090600406060663
:1024500001FEE09090E080800406060601FE709088
:1024600090701010040404060100A0D080800404C1
:102470000406010070C030E004060606010040407A
:10248000E040502004040406010090909070040481
:10249000040601009090606005040406000088A80E
:1024A000A85004040406010090606090040606062B
:1024B00001FE909090709060040404060100F020EA
:1024C00040F0030707060100204040804040200103
:1024D00007070602FF808080808080800307070650
:1024E0000100804040204040800402020601035069
:1024F000A0FFFFFFFFFFFFFFFFFFFFFFFFFFFFFF4B
:10250000FFFFFFFFFFFFFFFFFFFFFFFFFFFFFFFFDB
:10251000FFFF00000006000701060606020080001B
:10252000808080800406060601FF2070A0A0702035
:102530000507070600FF304840F04040F805050554
:10254000060000A8508850A805060606000088501E
:10255000F820F8200107070602FF808080008080B5
:10256000800407070601FF708060906010E003019F
:1025700001060105A0060707060000788494A494CC
:10258000847803050506010160A06000E0050505EB
:102590000600002850A05028040303060100F01094
:1025A00010040101060102F0060707060000788406
:1025B000B4A4A48478040101060105F00403030611
:1025C00001026090600507070600FF2020F8202028
:1025D00000F803050506010140A02040E0030505C1
:1025E000060101C0204020C0020202060204408011
:1025F0000405050601FF9090B0D080050606060090
:102600000078E8E868282801010106020280020239
:10261000020602FE408003050506010140C040405D
:10262000E003050506010140A04000E005050506A0
:102630000000A0502850A00508080600FF40C04038
:1026400050703078100508080600FF40C040506800
:102650000810380508080600FFC0204030F0307828
:102660001004070706010020002060809060050725
:1026700007060000402020507088880507070600E4
:1026800000102020507088880507070600002050A1
:1026900020507088880507070600002850205070D9
:1026A00088880507070600005000205070888805BC
:1026B000070706000020502050708888050606068F
:1026C000000078A0F0A0A0B80408080601FE609001
:1026D0008080906020400407070601004020F080C1
:1026E000E080F00407070601002040F080E080F061
:1026F0000407070601002050F080E080F00407077F
:102700000601005000F080E080F00307070601009A
:102710008040E0404040E00307070601002040E021
:10272000404040E003070706010040A0E040404071
:10273000E0030707060100A000E0404040E0050676
:10274000060600007048E8484870040707060100C4
:1027500050A090D0B0909004070706010040206080
:1027600090909060040707060100204060909090D0
:1027700060040707060100205060909090600407F5
:102780000706010050A060909090600407070601C2
:10279000005000609090906005050506000088508C
:1027A0002050880408080601FF1070B0B0D0D0E0B7
:1027B0008004070706010040209090909060040775
:1027C00007060100204090909090600407070601E2
:1027D0000020509090909060040707060100500080
:1027E0009090909060050707060000102088502008
:1027F000202004060606010080E09090E080040698
:10280000060601006090A0A090A004070706010042
:1028100040200070909070040707060100204000DF
:10282000709090700407070601002050007090908F
:102830007004070706010050A00070909070040615
:102840000606010050007090907004070706010012
:102850002050207090907005040406000070A8B00D
:10286000780406060601FE70808070204004070789
:1028700006010040200060B0C07004070706010098
:1028800020400060B0C0700407070601002050001F
:1028900060B0C070040606060100500060B0C07051
:1028A000030707060100804000C04040E00307071F
:1028B000060100204000C04040E003070706010079
:1028C00040A000C04040E0030606060100A000C092
:1028D0004040E004070706010030601070909060EF
:1028E00004070706010050A000E09090900407073D
:1028F0000601004020006090906004070706010078
:1029000020400060909060040707060100205000FE
:102910006090906004070706010050A0006090904E
:1029200060040606060100500060909060050505F1
:102930000600002000F8002004040406010070B026
:10294000D0E004070706010040200090909070043A
:1029500007070601002040009090907004070706CA
:10296000010020500090909070040606060100506F
:1029700000909090700409090601FE20400090909C
:10298000907090600408080601FE8080E09090E05E
:1029900080800408080601FE5000909090709060BE
:1029A00000060900FE070199032B20FFFE08FE0721
:1029B000FE0000000600000107070602008080807C
:1029C00080800080030303060104A0A0A005070780
:1029D0000600005050F850F8505005070706000058
:1029E0002070A07028702005070706000048A85036
:1029F0002050A89005070706000040A0A040A8901E
:102A000068010303060204808080030707060100B3
:102A1000204080808040200307070601008040207E
:102A2000202040800505050600018850F8508805E3
:102A300005050600012020F820200303030601FFFE
:102A4000604080050101060003F80303030601FF4F
:102A500040E040050707060000080810204080807D
:102A600005070706000020508888885020050707C2
:102A70000600002060A0202020F8050707060000BF
:102A8000708808304080F8050707060000F8081035
:102A90003008887005070706000010305090F810C5
:102AA00010050707060000F880B0C8088870050701
:102AB00007060000304080B0C88870050707060090
:102AC00000F8081010204040050707060000708835
:102AD0008870888870050707060000708898680865
:102AE00010600307070601FF40E0400040E040039C
:102AF00007070601FF40E04000604080040707062A
:102B0000010010204080402010050303060002F859
:102B100000F80407070601008040201020408005CF
:102B20000707060000708810202000200507070610
:102B30000000708898A8B080700507070600002084
:102B4000508888F88888050707060000F048487014
:102B50004848F0050707060000708880808088706C
:102B6000050707060000F04848484848F0050707F1
:102B7000060000F88080F08080F805070706000056
:102B8000F88080F08080800507070600007088804C
:102B900080988870050707060000888888F888886C
:102BA00088030707060100E04040404040E0050779
:102BB0000706000038101010109060050707060087
:102BC000008890A0C0A090880507070600008080BC
:102BD00080808080F80507070600008888D8A888CC
:102BE00088880507070600008888C8A8988888058F
:102BF0000707060000708888888888700507070620
:102C00000000F08888F08080800508080600FF70CA
:102C100088888888A87008050707060000F088885B
:102C2000F0A090880507070600007088807008886B
:102C300070050707060000F8202020202020050747
:102C400007060000888888888888700507070600BE
:102C500000888888505050200507070600008888A3
:102C600088A8A8D888050707060000888850205043
:102C70008888050707060000888850202020200546
:102C80000707060000F80810204080F80307070631
:102C90000100E08080808080E0050707060000805A
:102CA000804020100808030707060100E0202020CC
:102CB0002020E005030306000420508805010106DA
:102CC00000FFF80202020602068040050505060024
:102CD0000070087888780507070600008080B0C873
:102CE00088C8B00505050600007088808870050753
:102CF000070600000808689888986805050506001A
:102D0000007088F88070050707060000304840F022
:102D10004040400507070600FE78888878088870DC
:102D20000507070600008080B0C888888803070769
:102D30000601004000C0404040E00409090601FED1
:102D400010003010101090906005070706000080FA
:102D5000808890E09088030707060100C04040404B
:102D60004040E0050505060000D0A8A8A888050594
:102D700005060000B0C888888805050506000070B3
:102D8000888888700507070600FEB0C888C8B0802C
:102D9000800507070600FE689888986808080505FA
:102DA00005060000B0C8808080050505060000709B
:102DB000807008F00507070600004040F0404048DA
:102DC0003005050506000088888898680505050611
:102DD000000088885050200505050600008888A856
:102DE000A8500505050600008850205088050707F3
:102DF0000600FE88889868088870050505060000AA
:102E0000F8102040F8040707060100304020C020D9
:102E100040300107070602008080808080808004A7
:102E20000707060100C02040304020C0050303060C
:102E3000000448A89000000001000000000001000C
:102E40000000000001000000000001000000000080
:102E5000010000000000010000000000010000006F
:102E6000000001000000000001000000000001005F
:102E70000000000001000000000001000000000050
:102E8000010000000000010000000000010000003F
:102E9000000001000000000001000000000001002F
:102EA0000000000001000000000001000000000020
:102EB000010000000000010000000000010000000F
:102EC00000000100000000000100000000000100FF
:102ED00000000000010000000000010000000000F0
:102EE00001000000000001000000000001000000DF
:102EF00000000100000000000100000000000600CA
:102F0000000107070602008000808080808005079E
:102F1000070600FF2078A0A0A0782005070706007C
:102F200000304840E04048B00505050600008870C4
:102F30005070880508080600FF88885020F8202077
:102F4000200107070602008080800080808005083D
:102F5000080600FF7080E090483808700301010601
:102F60000107A00507070600007088A8C8A8887098
:102F70000406060601017090B05000F00605050633
:102F800000002448904824040202060102F01004C4
:102F90000101060103F00507070600007088E8C874
:102FA000C88870050101060007F803030306010441
:102FB00040A0400506060600002020F82020F80466
:102FC000050506010360902040F004050506010395
:102FD000E0106010E00202020602064080050606CC
:102FE0000600FF888888C8B08005070706000078BB
:102FF000E8E868282828010101060203800202028D
:103000000602FE408003050506010340C04040E083
:103010000406060601016090906000F006050506B2
:10302000000090482448900609090600FF40C0406F
:1030300040E40C143C040609090600FF40C040406F
:10304000E81404081C0509090600FFC0204020C838
:10305000182878080507070600002000202040886F
:10306000700508080600004020708888F8888805E8
:1030700008080600001020708888F888880508086D
:103080000600002050708888F88888050808060027
:103090000048B0708888F888880508080600005045
:1030A00000708888F888880508080600002050709D
:1030B0008888F888880607070600003C50909CF036
:1030C000909C0509090600FE708880808088702029
:1030D0004005080806000040F88080F08080F80570
:1030E000080806000010F88080F08080F8050808C5
:1030F00006000020F88080F08080F80508080600AF
:103100000050F88080F08080F803080806010080F5
:1031100040E040404040E00308080601002040E055
:1031200040404040E003080806010040A0E0404065
:103130004040E0030808060100A000E04040404095
:10314000E0050707060000F04848E84848F0050891
:1031500008060000285088C8A8988888050808062E
:1031600000004020708888888870050808060000E4
:103170001020708888888870050808060000205094
:1031800070888888887005080806000028507088B4
:1031900088888870050808060000500070888888B4
:1031A000887005050506000088502050880507072F
:1031B000060000709898A8C8C870050808060000A6
:1031C000402088888888887005080806000010203C
:1031D00088888888887005080806000020500088C4
:1031E000888888700508080600005000888888884C
:1031F00088700508080600001020888850202020CC
:1032000005070706000080F088F08080800507072A
:10321000060000708890A09088B00508080600009D
:103220004020007008788878050808060000102003
:1032300000700878887805080806000020500070A3
:10324000087888780508080600002850007008787B
:103250008878050707060000500070087888780510
:1032600008080600002050207008788878060505B8
:1032700006000078147C907C0507070600FE708825
:1032800080887020400508080600004020007088F3
:10329000F880700508080600001020007088F8808B
:1032A000700508080600002050007088F88070053E
:1032B000070706000050007088F8807003080806B1
:1032C0000100804000C0404040E0030808060100C3
:1032D000408000C0404040E003080806010040A0D4
:1032E00000C0404040E0060A0A0600FEA4A800FC18
:1032F0008480808084FC060A0A0600FE549400FC48
:103300008404040484FC050808060000285000B06A
:10331000C888888805080806000040200070888852
:103320008870040A0A0602FE3040809090909090C7
:103330009090040A0A0600FEC02010909090909091
:103340009090060707060001448C8C8480403C0660
:10335000070706000188C4C4840408F005050506B3
:1033600000012000F8002005080806000040F0C811
:103370008888987810050808060000E0F888888892
:103380008888F80505050600012030F8302005087A
:10339000080600002070F820202020E0050909061A
:1033A00000FF2070A8A8B8888850200509090600E9
:1033B000FFE080C0B0A8A83028280509090600FF52
:1033C000F8A88888888888A8F8050A0A0600FE20D8
:1033D0005050505088A8A8887000091200FC0A01BB
:1033E000E803D720FFFD0EFD0BFD00000009000ED5
:1033F000010B0B09040080808080808080000080A9
:103400008004040409030790909090080A0A0900B8
:1034100000242424FF2424FF242424070B0B090167
:10342000FF107C929050381412927C10070A0A09FF
:10343000010042A4A4481010244A4A84070A0A0939
:103440000100609090906062948894620104040985
:10345000040780808080030C0C0903FF204040801B
:103460008080808080404020030C0C0903FF804056
:10347000402020202020204040800707070901032A
:1034800010925438549210070707090101101010C8
:10349000FE1010100204040904FEC0C040800701A1
:1034A00001090104FE020202090400C0C0070A0A61
:1034B00009010002040408101020404080070A0A95
:1034C00009010038448282828282824438070A0AD3
:1034D000090100103050901010101010FE070A0A59
:1034E000090100384482020408102040FE070A0A3D
:1034F000090100FE020408180402028478070A0A7F
:10350000090100040C14244484FE040404070A0A7C
:10351000090100FE808080F80402028478070A0A0C
:103520000901003C408080B8C482824438070A0AFE
:10353000090100FE020404080810101010070A0A0E
:1035400009010038448244384482824438070A0A18
:1035500009010038448282463A02020478020707D1
:10356000090400C0C0000000C0C00209090904FE2F
:10357000C0C0000000C0C040800509090902000861
:103580001020408040201008070404090102FE00BA
:1035900000FE0509090902008040201008102040A3
:1035A00080070A0A0901003844820204081010004A
:1035B00010070A0A09010038449AAAAAAAAA9C403C
:1035C0003C070A0A09010010282828447C4482820A
:1035D00082070A0A090100F8848284F884828284BE
:1035E000F8070A0A0901003C4280808080808042FE
:1035F0003C070A0A090100F884828282828282845E
:10360000F8070A0A090100FE808080F88080808027
:10361000FE070A0A090100FE808080F88080808011
:1036200080070A0A09010038448280808E82824421
:1036300038070A0A09010082828282FE828282821F
:1036400082050A0A090200F82020202020202020DC
:10365000F8070A0A0901003E0808080808088888CF
:1036600070070A0A09010082848890A0D0888482A9
:1036700082070A0A09010080808080808080808023
:10368000FE070A0A0901008282C6AA928282828209
:1036900082070A0A0901008282C2A2928A86828275
:1036A00082070A0A0901007C8282828282828282E7
:1036B0007C070A0A090100F884828284F8808080ED
:1036C00080080B0B0901FF384482828282828A447F
:1036D0003A01070A0A090100F884828284F8908876
:1036E0008482070A0A0901007C8280807C0202022F
:1036F000827C070A0A090100FE1010101010101039
:103700001010070A0A090100828282828282828264
:103710004438070A0A090100828282444444282866
:103720002810070A0A0901008282828292929292EC
:10373000AA44070A0A09010082824428101028447A
:103740008282070A0A0901008282442810101010A0
:103750001010070A0A090100FE0204081020408028
:1037600080FE040C0C0903FFF08080808080808044
:10377000808080F0070A0A09010080404020101074
:1037800008040402040C0C0902FFF01010101010C1
:103790001010101010F007040409010610284482CC
:1037A0000801010900FFFF03030309030A80402009
:1037B0000707070901007C02027E82867A070A0A4F
:1037C000090100808080BCC2828282C2BC070707D8
:1037D0000901007C82808080827C070A0A0901003E
:1037E0000202027A86828282867A0707070901002E
:1037F0007C8282FE80827C070A0A0901001C222248
:103800002020F820202020070A0A0901FD7A84845C
:103810008478807C82827C070A0A0901008080808B
:10382000BCC28282828282050A0A0902006000000C
:10383000E02020202020F8050D0D0902FD180000D1
:1038400038080808080808888870070A0A0901006B
:10385000808080848890B0C88482050A0A090200AA
:10386000E02020202020202020F807070709010061
:10387000EC929292929282070707090100BCC282E1
:10388000828282820707070901007C82828282820B
:103890007C070A0A0901FDB8C4828282C4B880800C
:1038A00080070A0A0901FD3A46828282463A0202EC
:1038B000020707070901009C624240404040070799
:1038C000070901007C82807C02827C0709090901CA
:1038D000002020FC20202020221C070707090100CF
:1038E0008282828282867A070707090100828244E7
:1038F000442828100707070901008282929292AAA1
:103900004407070709010082442810284482070A57
:103910000A0901FD42422424241818109060070768
:1039200007090100FE0408102040FE060B0B0902E7
:10393000001C20202020C0202020201C010C0C096D
:1039400004FF808080808080808080808080060B63
:103950000B090100E0101010100C10101010E007FF
:10396000030309010762928CFFFFFFFFFFFFFFFFC8
:10397000FFFFFFFFFFFFFFFFFFFFFFFFFFFFFFFF57
:10398000FFFFFFFFFFFFFFFFFF00000009000E0128
:103990000B0B090400808000008080808080808084
:1039A00006080809010008789490A0A47840070A46
:1039B0000A0901001C222020F8202060A25C0706D2
:1039C00006090103827C44447C82070A0A0901003B
:1039D000828244287C107C101010010B0B0904FF1C
:1039E0008080808080008080808080040B0B0902B2
:1039F000FF609080609090906010906003020209D8
:103A0000030BA0A00809090900013C4299A5A1A542
:103A100099423C050707090103609070907800F80F
:103A2000070808090101122448909048241206044E
:103A300004090102FC040404050101090204F80858
:103A400009090900013C42B9A5BDA9A5423C0601EE
:103A500001090109FC040404090306609090600751
:103A60000909090101101010FE10101000FE0406D3
:103A7000060901046090106080F004060609010444
:103A800060902010906003030309030A2040800720
:103A900009090901FE8282828282C6BA8080070AF1
:103AA0000A0901007E8A8A8A7A0A0A0A0A0A020236
:103AB00002090404C0C00403030902FD209060034E
:103AC000060609010440C0404040E0050606090121
:103AD000047088887000F8070808090101904824DC
:103AE0001212244890070A0A09010040C0404042CF
:103AF000E60A121A06070A0A09010040C040404CB3
:103B0000F2020C101E070A0A0901006090201092B0
:103B1000660A121A06070A0A09010010001010208E
:103B2000408082827C070E0E0901002010080010E0
:103B3000282828447C44828282070E0E090100084E
:103B400010200010282828447C44828282070E0E10
:103B50000901001028440010282828447C4482824F
:103B600082070D0D09010034580010282828447CD4
:103B700044828282070D0D090100282800102828A0
:103B800028447C44828282070E0E090100102828F6
:103B90001010282828447C44828282070A0A0901DE
:103BA000001E2828284E784888888E070D0D0901A8
:103BB000FD3C42808080808080423C082418070EB3
:103BC0000E09010020100800FE808080F8808080AF
:103BD00080FE070E0E09010008102000FE80808084
:103BE000F880808080FE070E0E0901001028440036
:103BF000FE808080F880808080FE070D0D09010026
:103C0000282800FE808080F880808080FE050E0ECF
:103C100009020040201000F8202020202020202031
:103C2000F8050E0E09020010204000F82020202088
:103C300020202020F8050E0E09020020508800F8F0
:103C40002020202020202020F8050D0D0902005002
:103C50005000F82020202020202020F8070A0A0900
:103C6000010078444242F24242424478070D0D0975
:103C700001003458008282C2A2928A868282820720
:103C80000E0E090100201008007C8282828282824E
:103C900082827C070E0E090100081020007C8282BF
:103CA0008282828282827C070E0E090100102844E3
:103CB000007C82828282828282827C070D0D0901D1
:103CC000003458007C82828282828282827C070D4C
:103CD0000D0901002828007C8282828282828282F1
:103CE0007C07070709010182442810284482070C39
:103CF0000C0901FF027C868A8A9292A2A2C27C8071
:103D0000070E0E0901002010080082828282828242
:103D100082824438070E0E090100081020008282BA
:103D20008282828282824438070E0E0901001028A6
:103D3000440082828282828282824438070D0D0989
:103D4000010028280082828282828282824438078F
:103D50000E0E090100081020008282442810101065
:103D6000101010070A0A0901008080FC828282FC80
:103D7000808080060A0A09010038444448D048443B
:103D8000444458070B0B090100201008007C020274
:103D90007E82867A070B0B090100081020007C0246
:103DA000027E82867A070B0B090100102844007CF2
:103DB00002027E82867A070A0A0901003458007CD2
:103DC00002027E82867A070A0A0901002828007CFE
:103DD00002027E82867A070C0C0901001028281046
:103DE000007C02027E82867A0707070901006C12B6
:103DF000127E90926C070A0A0901FD7C8280808005
:103E0000827C104830070B0B090100201008007C51
:103E10008282FE80827C070B0B09010008102000C3
:103E20007C8282FE80827C070B0B090100102844F3
:103E3000007C8282FE80827C070A0A090100282811
:103E4000007C8282FE80827C050C0C09020080408E
:103E5000200000E02020202020F8050C0C090200A2
:103E60001020400000E02020202020F8050C0C0944
:103E700002002050880000E02020202020F8050BC0
:103E80000B09020050500000E02020202020F807FD
:103E90000B0B090100483050083C448282824438B0
:103EA000070A0A090100345800BCC2828282828259
:103EB000070B0B090100201008007C82828282829D
:103EC0007C070B0B090100081020007C8282828293
:103ED000827C070B0B090100102844007C8282823F
:103EE00082827C070A0A0901003458007C8282829F
:103EF00082827C070A0A0901002828007C828282CB
:103F000082827C07090909010010381000FE0010A8
:103F100038100709090901FF027C8A8A92A2A27C53
:103F200080070B0B090100402010008282828282F0
:103F3000867A070B0B09010008102000828282821A
:103F400082867A070B0B09010010284400828282C6
:103F50008282867A070A0A09010028280082828262
:103F60008282867A070E0E0901FD04081000424283
:103F70002424241818109060070B0B0901FE808080
:103F8000B8C4828282C4B88080070D0D0901FD2467
:103F900024004242242424181810906000002100BC
:103FA000240027002A0000002200250028002B0002
:103FB0000000200023002600290002020202020263
:103FC00002020404040404040404030303030303BB
:103FD0000303010101010101010101020408102094
:103FE00040800102040810204080010204081020D3
:103FF00040808040201008040201000000010200FF
:10400000000000000000040307060000000000009C
:104010000000000000000000000002494E46494E2A
:104020004954594E414ECDCCCC3D0AD7233C17B70D
:10403000D13877CC2B329595E6241FB14F0A00007A
:1040400020410000C84200401C4620BCBE4CCA1B98
:104050000E5AAEC59D742A39ED3B35D6FBDBE63BE7
:1040600011241FBECFEFD0E4DEBFCDBF13E0A0E030
:10407000B1E0EEE1FFED01E00BBF02C007900D9251
:10408000A239B107D9F71BBE14E1A2E9B3E001C020
:104090001D92AF34B107E1F710E4CEE5D0E404C0DF
:1040A0002297FE010E9434EFC635D107C9F70E945E
:1040B0007EE60C9482EF0C940000A0E0B0E0E3E612
:1040C000F0E20C9451EFEC015B016115710519F000
:1040D000FB0191838083F9908F2D90E00E9438EF4F
:1040E000892BC9F7FDE2FF1621F4F990EE24E39441
:1040F00005C02BE2F21609F4F990EE248E0101506E
:104100001040C8016BE170E443E050E00E94FC22E3
:10411000892B01F58E010E5F1F4FC8016EE170E41F
:1041200045E050E00E94FC22892B19F48E01095FC2
:104130001F4FA114B10419F0F50111830083E0FCB5
:1041400004C070E090E080E814C070E090E080E887
:104150006FEF08C1C80163E270E443E050E00E94E1
:10416000FC22892B69F4A114B10429F470E090E0D9
:1041700080EC6FE7F7C02296F501D183C083F6CFBC
:104180008824992440E050E060E070E0EF2DE05397
:10419000EA30A0F5F2E0EF2A8E2D90E09C01287025
:1041A0003070E2FE06C0232B79F50894811C911C27
:1041B0002BC0232B19F0089481089108DB01CA0158
:1041C00012E0880F991FAA1FBB1F1A95D1F7480F3D
:1041D000591F6A1F7B1F440F551F661F771F4E0F05
:1041E000511D611D711D483929E9520729E96207EE
:1041F00029E1720748F084E0E82A06C0EE3F31F476
:10420000E3FC39C098E0E92AF990C0CFE53311F01A
:10421000E53189F529912D3219F4E0E1EE2A05C046
:104220002B3219F081E090E003C0299182E090E008
:10423000E22FE053EA3018F0C81BD90B1CC020E075
:1042400030E0FCE020383F075CF4C901880F991F7B
:10425000880F991F280F391F220F331F2E0F311D72
:10426000E991E053EA3068F3E4FE03C0309521950C
:104270003F4F820E931ECE2CDD24E1FE07C0A11419
:10428000B10421F02197F501D183C083CB01BA019C
:104290000E949DEB7B018C01F3E0CF22DD2423E023
:1042A000C216D10421F417FB109517F91095570188
:1042B0006801C801B70120E030E040E050E00E9412
:1042C000FDEA882309F44AC097FE0DC02AE3E22ED6
:1042D00020E4F22E9094819491089394C0E2D0E06F
:1042E00000E010E012C092E5E92E90E4F92EF6CF3E
:1042F000F7012591359145915491C601B5010E9470
:10430000DDED5B016C018C1A9D0A8C169D0684F70D
:10431000D595C7950F5F1F4F0630110529F08CEF1B
:104320009FEFE80EF91EF1CFC501D6017C018D018A
:104330008C2D880F8D2D881F8F3F51F0C601B50140
:1043400020E030E040E050E00E94FDEA882331F4B4
:1043500082E290E090934E1480934D147E2D9F2D19
:10436000802F612F272F392F482F562FB901CA01CF
:10437000CDB7DEB7ECE00C946DEF2F923F925F92D9
:104380006F927F928F929F92AF92BF92CF92DF9265
:10439000EF92FF920F931F93CF93DF938C011B013A
:1043A000EA016115710519F0FB0191838083209763
:1043B00049F0CE010297839728F020E030E040E0FA
:1043C00050E0F6C0F801A1908F018A2D90E00E9484
:1043D00038EF892BB9F7FDE2AF1631F4F801A1905F
:1043E0008F015524539407C0FBE2AF1619F4F8016E
:1043F000A1908F015524209719F0C031D105C1F447
:10440000F0E3AF1679F4F8018081883711F0883530
:1044100049F4F801A1800E5F1F4FF2E05F2AC0E16E
:10442000D0E006C0209721F480E3A816E9F427C065
:10443000C830D10531F1C930D10524F4C230D105DD
:1044400031F50CC0CA30D10589F0C031D105F9F47D
:10445000C12CD12CE12CB8E0FB2E28C0C12CD12CD2
:10446000E12CA0E4FA2E22C0CAE0D0E0FCECCF2E72
:10447000FCECDF2EFCECEF2EFCE0FF2E17C0C8E0BA
:10448000D0E0C12CD12CE12CE0E1FE2E0FC09E012A
:10449000442737FD4095542F60E070E080E090E8BD
:1044A0000E94F5EEC901DA016C017D0120E030E0E7
:1044B00040E050E060E03E01882477FC8094982C36
:1044C00070EDB72EBA0CE9E0EB1570F48A2D81542B
:1044D0008A3118F499ECB92E06C08A2D81568A319A
:1044E00050F589EAB82EBA0C8B2D90E08C179D07F9
:1044F00014F56F3FE1F0C216D306E406F506B0F0FE
:10450000CA01B901A40193010E94AFEE9B01AC0165
:104510002B0D311D411D511D2130F0E03F07F0E012
:104520004F07F0E85F0710F461E001C06FEFF8019A
:10453000A1908F01C5CF2114310481F0662331F0A1
:1045400001501040F1011183008308C051FE1AC0D0
:1045500002501040F1011183008314C067FF12C0A4
:1045600050FC05C02FEF3FEF4FEF5FE704C020E0A6
:1045700030E040E050E882E290E090934E14809367
:104580004D1416C050FE08C05095409530952195A9
:104590003F4F4F4F5F4F0CC057FF0AC082E290E081
:1045A00090934E1480934D142FEF3FEF4FEF5FE742
:1045B000B901CA01DF91CF911F910F91FF90EF9048
:1045C000DF90CF90BF90AF909F908F907F906F9033
:1045D0005F903F902F900895FB01DC0105900D92B4
:1045E0000020E1F70895FC0105900020E9F780958F
:1045F00090958E0F9F1F0895FB01DC0141505040A4
:1046000088F08D9181341CF08B350CF4805E6591BF
:1046100061341CF06B350CF4605E861B611171F324
:10462000990B0895881BFCCFFB01DC0141505040E1
:1046300048F005900D920020C9F701C01D9241502D
:104640005040E0F70895FB0155915523A9F0BF01B3
:10465000DC014D9145174111E1F759F4CD01059069
:10466000002049F04D9140154111C9F3FB01411162
:10467000EFCF81E090E001970895FB01DC0104C0D9
:104680008D910190801921F441505040C8F7881B4A
:10469000990B0895FB01DC0102C001900D9241507D
:1046A0005040D8F70895FB01DC010D900020E9F798
:1046B000119701900D920020E1F70895FC0181917E
:1046C000861721F08823D9F7992708953197CF01CC
:1046D0000895FB01DC0101900D920020E1F708959F
:1046E000FB01DC014150504030F08D910190801968
:1046F00019F40020B9F7881B990B0895FB01DC0120
:104700004150504048F001900D920020C9F701C07F
:104710001D9241505040E0F70895AEE0B0E0E3E96B
:10472000F3E20C9459EF0D891E898EE08C831A8375
:1047300009838FEF9FE79E838D839E01275E3F4F06
:10474000CE0101966F89788DA9010E94B1232F8136
:104750003885020F131FF80110822E96E4E00C94A6
:1047600075EFABE0B0E0E7EBF3E20C944BEF3C010C
:104770002B015A01FC0117821682838181FD03C03F
:104780006FEF7FEFC6C19AE0892E1E010894211CAD
:10479000311CF3012381F20123FD859123FF8191D7
:1047A0002F01882309F4B2C1853239F423FD8591A4
:1047B00023FF81912F01853229F490E0B3010E94FB
:1047C000A425E7CF982FFF24EE249924FFE1FF15BD
:1047D000D0F09B3269F09C3228F4903259F0933239
:1047E00091F40EC09D3249F0903369F441E024C049
:1047F00052E0F52A84E0F82A28C098E0F92A25C07A
:10480000E0E1FE2A22C0F7FC29C0892F80538A30BC
:1048100070F4F6FE05C0989C902C1124980E15C0DB
:10482000E89CE02C1124E80EF0E2FF2A0EC09E3234
:1048300029F4F6FC6BC140E4F42A07C09C3619F455
:1048400050E8F52A02C0983649F4F20123FD95910B
:1048500023FF91912F01992309F0B8CF892F855417
:10486000833018F08052833038F444E050E0A40ED6
:10487000B51E5FE359830FC0933631F0933779F05B
:10488000933509F056C020C0F5018081898342E04C
:1048900050E0A40EB51E610101E010E012C0F50168
:1048A000C080D180F6FC03C06FEF7FEF02C0692D9E
:1048B00070E042E050E0A40EB51EC6010E949925AA
:1048C0008C015FE7F52214C0F501C080D180F6FCB1
:1048D00003C06FEF7FEF02C0692D70E042E050E04F
:1048E000A40EB51EC6010E948E258C0150E8F52A43
:1048F000F3FE07C01AC080E290E0B3010E94A42535
:10490000EA948E2D90E008171907A8F30EC0F6015F
:10491000F7FC8591F7FE81916F0190E0B3010E9451
:10492000A425E110EA94015010400115110579F712
:10493000EAC0943611F0993669F5F7FE08C0F50122
:10494000208131814281538184E090E00AC0F501E9
:10495000808191819C01442737FD4095542F82E04E
:1049600090E0A80EB91E9FE6F92257FF09C05095A6
:104970004095309521953F4F4F4F5F4FE0E8FE2A1D
:10498000CA01B901A1012AE030E00E94D025D82E49
:10499000D21840C0953729F41F2D1F7E2AE030E041
:1049A0001DC01F2D197F9F3661F0903720F4983578
:1049B00009F0ACC00FC0903739F0983709F0A6C0A5
:1049C00004C028E030E00AC0106114FD146020E14A
:1049D00030E004C014FD166020E132E017FF08C08B
:1049E000F501608171818281938144E050E008C0CB
:1049F000F50180819181BC0180E090E042E050E0CF
:104A0000A40EB51EA1010E94D025D82ED2188FE782
:104A1000F82EF122F6FE0BC05EEFF522D91438F421
:104A2000F4FE07C0F2FC05C08FEEF82202C01D2D77
:104A300001C0192DF4FE0DC0FE01ED0DF11D8081A8
:104A4000803319F499EEF92208C01F5FF2FE05C009
:104A500003C08F2D867809F01F5F0F2DF3FC14C063
:104A6000F0FE0FC01E1510F09D2C0BC09D2C9E0C4F
:104A7000911A1E2D06C080E290E0B3010E94A42589
:104A80001F5F1E15C0F304C01E1510F4E11A01C00B
:104A9000EE2404FF0FC080E390E0B3010E94A42540
:104AA00002FF1DC001FD03C088E790E00EC088E54D
:104AB00090E00BC0802F867891F001FF02C08BE25E
:104AC00001C080E2F7FC8DE290E0B3010E94A425D2
:104AD00006C080E390E0B3010E94A4259A94D91403
:104AE000C0F3DA94F101ED0DF11D808190E0B30186
:104AF0000E94A425DD20A9F706C080E290E0B30162
:104B00000E94A425EA94EE20C1F743CEF30166810A
:104B10007781CB012B96E2E10C9467EFFC010590C5
:104B2000615070400110D8F7809590958E0F9F1FAF
:104B30000895FC016150704001900110D8F78095F4
:104B400090958E0F9F1F08950F931F93CF93DF9320
:104B50008C01EB018B8181FF1BC082FF0DC02E8178
:104B60003F818C819D812817390764F4E881F981A0
:104B70000193F983E88306C0E885F985802F0995BC
:104B8000892B31F48E819F8101969F838E8302C091
:104B90000FEF1FEFC801DF91CF911F910F91089583
:104BA000FA01AA27283051F1203181F1E8946F935E
:104BB0006E7F6E5F7F4F8F4F9F4FAF4FB1E03ED004
:104BC000B4E03CD0670F781F891F9A1FA11D680FA2
:104BD000791F8A1F911DA11D6A0F711D811D911DD5
:104BE000A11D20D009F468943F912AE0269F11244A
:104BF0003019305D3193DEF6CF010895462F4770AE
:104C0000405D4193B3E00FD0C9F7F6CF462F4F7008
:104C1000405D4A3318F0495D31FD4052419302D066
:104C2000A9F7EACFB4E0A69597958795779567950C
:104C3000BA95C9F700976105710508959B01AC010C
:104C40000A2E06945795479537952795BA95C9F733
:104C5000620F731F841F951FA01D0895FC0112820F
:104C600013820895FC018381882311F081E08283FF
:104C70000895FC018281811112820895CF93DF9300
:104C8000DC01FC01EB55FE4F808191810097C9F159
:104C9000019791838083ED01CC5ADF4FFD01ED58E0
:104CA000FF4F8BE1019009928150E1F7FD01EE5A2F
:104CB000FF4FAF58BF4F8D919C911197A157B040B6
:104CC00091838083FD01ED58FF4F20E030E0AD017E
:104CD0004B555E4F10C02F5F3F4FEF01DF015F96D6
:104CE0008BE10D9009928150E1F7858D968D329779
:104CF00091838083B196DA018D919C9128173907B1
:104D000050F3DF91CF910895FC018AE693E09183FF
:104D100080838781882321F0CF0104960E94D57972
:104D20000895CF92DF92EF92FF920F931F93DF933C
:104D3000CF93CDB7DEB76F970FB6F894DEBF0FBE37
:104D4000CDBF8C016B01095A1F4FD8018C910755BB
:104D50001040882321F42FE2E22EF12C03C090E5CD
:104D6000E92EF12CE00EF11E8AE693E09A83898306
:104D70001C821B8218861D82B7016C5F7F4FCE019B
:104D80000596A60121E00E94E380882391F5E3EED9
:104D9000F0E0949108C08091C00085FFFCCF909313
:104DA000C600319694919923B1F7E9EEF0E0949121
:104DB00008C08091C00085FFFCCF9093C60031965B
:104DC00094919923B1F709C08091C00085FFFCCF71
:104DD0000894C11CD11C9093C600F60190819923C0
:104DE00099F78091C00085FFFCCF8AE08093C600D0
:104DF0005AC0F801EB55FE4F208131812A30310530
:104E000008F040C02F5F3F4F318320832150304056
:104E1000F90185E0EE0FFF1F8A95E1F7E21BF30B26
:104E2000ED58FF4FE00FF11F13C0AF01415E5F4F20
:104E3000BF018BE1DB010D90BD01DA010D92AD01E7
:104E40008150C1F7929182913296968F858F7F978C
:104E500021503040BFEF2E3F3B0739F7D801AD5806
:104E6000BF4FF70134968BE101900D928150E1F72D
:104E70000F581F4FF70182819381D8018D939C9326
:104E800001571040D801AC5ABF4FFE0135968BE157
:104E900001900D928150E1F70E5A1F4F8B819C813A
:104EA000F80191838083CE0101960E9484266F963B
:104EB0000FB6F894DEBF0FBECDBFCF91DF911F912B
:104EC0000F91FF90EF90DF90CF900895EF92FF92B7
:104ED0000F931F938C013EECE32E31E0F32EE80E8E
:104EE000F91EC7010E948779C7010E94D579F80190
:104EF000108211821F910F91FF90EF900895CF9231
:104F0000DF92EF92FF920F931F93CF93DF937C0179
:104F10006B01DB010D900020E9F78D01015010407D
:104F2000061B170BEEECF1E0EE0EFF1ED7011C92F4
:104F3000E2E3FEEFEE0EFF1ECB016EE470E00E9496
:104F40005E23EC01009731F4F8013197EC0DFD1D63
:104F500086010EC060E270E00E945E238C010F5F4C
:104F60001F4FCE016AE270E00E945E23FC01319780
:104F70008DE081838AE082831382C70186539E4F2E
:104F8000B8010E94E5818EEC91E0E80EF91ED70190
:104F90008C91882319F1E3E1F1E0949108C08091AC
:104FA000C00085FFFCCF9093C60031969491992361
:104FB000B1F7EAE1F1E0949108C08091C00085FF6B
:104FC000FCCF9093C600319694919923B1F78091CC
:104FD000C00085FFFCCF8AE08093C600DF91CF91AF
:104FE0001F910F91FF90EF90DF90CF900895CF9396
:104FF000DF93EC018B81882309F43BC0E2E4F1E00C
:10500000949108C08091C00085FFFCCF9093C600AA
:10501000319694919923B1F7CD57DD4F488159814D
:105020006A817B81C358D24086E194E02AE030E077
:105030000E94C539E0E4F1E0949108C08091C0007D
:1050400085FFFCCF9093C600319694919923B1F7D8
:10505000C558DD4F488159816A817B8186E194E0A2
:105060002AE030E00E94C5398091C00085FFFCCF66
:1050700012C0E0E3F1E0949108C08091C00085FF88
:10508000FCCF9093C600319694919923B1F780910B
:10509000C00085FFFCCF8AE08093C600DF91CF91EE
:1050A00008952F923F924F925F926F927F928F92CC
:1050B0009F92AF92BF92CF92DF92EF92FF920F93A7
:1050C0001F93DF93CF93CDB7DEB7AC970FB6F894AD
:1050D000DEBF0FBECDBF5C014B01FC018381882385
:1050E00009F438C1C50182539E4F0E94D579F5015C
:1050F00012821A8A1D8A198A188A8AE693E09F8783
:105100008E875EE4C52ED12CCA0CDB1C2FE230E06A
:10511000A20EB31EF601B182A08221ED3FEFA20ED6
:10512000B31EF40180818F3209F090C0C4016FE298
:1051300070E00E945E237C010894E11CF11C3E019A
:105140000894611C711C260142E1242E312C2C0E86
:105150003D1E77C0C7016FE270E00E945E236C01C4
:10516000009709F481C0E816F90608F07DC08C01AB
:105170000E191F09C301B701A8010E947E23060D65
:10518000171DF8011082F30107C08091C00085FF50
:10519000FCCF31969093C60090819923B1F780910E
:1051A000C00085FFFCCFFAE0F093C600F2016081F9
:1051B00071816115710519F460E070E002C06C5FE7
:1051C0007F4FC101A30121E00E94E380882371F594
:1051D000EEE7F1E0949108C08091C00085FFFCCF1C
:1051E0009093C600319694919923B1F7FE013196C0
:1051F00007C08091C00085FFFCCF31969093C60018
:1052000090819923B1F7ECE7F1E0949108C0809187
:10521000C00085FFFCCF9093C600319694919923EE
:10522000B1F78091C00085FFFCCF8DC02EE030E04B
:105230002C0F3D1FF2013183208376010894E11C7D
:10524000F11CE114F10409F085CF0BC080E590E07A
:10525000A80EB91EF601B182A08220EB3FEFA20E8C
:10526000B31ED82C092D02C0DE2C0F2D8EE490E049
:10527000A80EB91EF5018081918122EB3FEFA20EAD
:10528000B31E009719F480E090E001C004966D2DE4
:10529000702F0E94B581882339F1EEE6F1E09491F8
:1052A00008C08091C00085FFFCCF9093C600319666
:1052B00094919923B1F78D2D902F9C01F90107C08E
:1052C0008091C00085FFFCCF31969093C6009081FD
:1052D0009923B1F783E892E0A80EB91EF501108278
:1052E00011821282138232C0E6E5F1E0949108C087
:1052F0008091C00085FFFCCF9093C60031969491B9
:105300009923B1F78D2D902F9C01F90107C0809151
:10531000C00085FFFCCF31969093C6009081992301
:10532000B1F7E4E5F1E0949108C08091C00085FFF9
:10533000FCCF9093C600319694919923B1F7809158
:10534000C00085FFFCCF8AE08093C600CE010E9698
:105350000E948426AC960FB6F894DEBF0FBECDBF78
:10536000CF91DF911F910F91FF90EF90DF90CF9041
:10537000BF90AF909F908F907F906F905F904F9075
:105380003F902F900895BF92CF92DF92EF92FF92BD
:105390000F931F93CF93DF938C01EB018FE28993DF
:1053A000EE24E394FF2475EAC72E71E0D72EC00ED9
:1053B000D11E6FE1B62E14C0FB9CC00111248D5884
:1053C0009F4F800F911FBE010E94E77902C0219676
:1053D000E3948881882319F08CE88E15C0F7F39444
:1053E0002F2D30E0F601808191812817390720F3B5
:1053F000E7FC07C0C80182539E4FBE010E94E779B7
:1054000001C01882DF91CF911F910F91FF90EF9013
:10541000DF90CF90BF9008952F923F924F925F926E
:105420006F927F928F929F92AF92BF92CF92DF92B4
:10543000EF92FF920F931F93DF93CF93CDB7DEB719
:10544000AD970FB6F894DEBF0FBECDBF6C014B0118
:105450004DA7DC0113968C91882309F44AC3E1ED32
:10546000F1E0CE0EDF1ED6018C91EFE2FEEFCE0E04
:10547000DF1E882309F419C1222309F0E1C029EEB7
:1054800031E0C20ED31ED6018C91E7E1FEEFCE0EC5
:10549000DF1E882371F1E3E1F1E0949108C080916F
:1054A000C00085FFFCCF9093C6003196949199235C
:1054B000B1F7E6E5F2E0949108C08091C00085FF65
:1054C000FCCF9093C600319694919923B1F786E171
:1054D00094E061E070E04AE050E00E94193A809167
:1054E000C00085FFFCCF8AE08093C6000E94363C56
:1054F00000C3E3EEF0E0949108C08091C00085FF06
:10550000FCCF9093C600319694919923B1F7EDE3C7
:10551000F2E0949108C08091C00085FFFCCF909389
:10552000C600319694919923B1F7F40107C0809198
:10553000C00085FFFCCF31969093C60090819923DF
:10554000B1F7E2E3F2E0949108C08091C00085FFDA
:10555000FCCF9093C600319694919923B1F7C60180
:105560002EEE31E0C20ED31EB6010E94C3294BEFCE
:105570005FEFC40ED51ED6019C91E7E1FEEFCE0E83
:10558000DF1E8DE8989FF0011124E251FE4FEC0DD3
:10559000FD1D07C08091C00085FFFCCF3196909320
:1055A000C60090819923B1F7ECE2F2E0949108C033
:1055B0008091C00085FFFCCF9093C60031969491F6
:1055C0009923B1F723E832E0C20ED31ED6014D91E4
:1055D0005D916D917C91EDE7FDEFCE0EDF1E86E1D2
:1055E00094E02AE030E00E94C5398091C00085FF38
:1055F000FCCF8AE08093C600A60147515E4FDA01D6
:105600002C91E22FF0E0EE0FFF1FEE0FFF1FEC0DCD
:10561000FD1DE651FE4F83E892E0C80ED91ED6016B
:105620004D905D906D907C908DE79DEFC80ED91EDA
:1056300040825182628273822F5FDA012C932FC0E5
:10564000E3EEF0E0949108C08091C00085FFFCCFAC
:105650009093C600319694919923B1F7EBE1F2E073
:10566000949108C08091C00085FFFCCF9093C60044
:10567000319694919923B1F7F40107C08091C0004D
:1056800085FFFCCF31969093C60090819923B1F7A6
:105690008091C00085FFFCCF8AE08093C600C601E0
:1056A00082539E4F0E94D57939C0E9EEF1E0CE0ECB
:1056B000DF1ED6011C92E7E1FEEFCE0EDF1EE3EE09
:1056C000F0E0949108C08091C00085FFFCCF9093DA
:1056D000C600319694919923B1F7EAE0F2E09491F3
:1056E00008C08091C00085FFFCCF9093C600319622
:1056F00094919923B1F7F40107C08091C00085FF10
:10570000FCCF31969093C60090819923B1F7809198
:10571000C00085FFFCCF8AE08093C600D6011296B8
:105720001C921A8A1D8A198A188A8AE693E09F8732
:105730008E87FEE4AF2EB12CAC0CBD1CEFE2F0E086
:10574000CE0EDF1ED501CD92DC92E1EDFFEFCE0E45
:10575000DF1ED4018C918F3209F090C0C4016FE23A
:1057600070E00E945E237C010894E11CF11C3E0164
:105770000894611C711C2501E2E12E2E312C2C0EA7
:105780003D1E77C0C7016FE270E00E945E235C019E
:10579000009709F481C0E816F90608F07DC08C0175
:1057A0000E191F09C301B701A8010E947E23060D2F
:1057B000171DF8011082F30107C08091C00085FF1A
:1057C000FCCF31969093C60090819923B1F78091D8
:1057D000C00085FFFCCFFAE0F093C600D2016D91C6
:1057E0007C916115710519F460E070E002C06C5F96
:1057F0007F4FC101A30121E00E94E380882371F55E
:10580000E6EFF1E0949108C08091C00085FFFCCFE5
:105810009093C600319694919923B1F7FE01319689
:1058200007C08091C00085FFFCCF31969093C600E1
:1058300090819923B1F7E4EFF1E0949108C0809151
:10584000C00085FFFCCF9093C600319694919923B8
:10585000B1F78091C00085FFFCCF1BC12EE030E086
:105860002C0F3D1FF2013183208375010894E11C48
:10587000F11CE114F10409F085CF0BC040E550E0C4
:10588000C40ED51ED501CD92DC92E0EBFFEFCE0E1B
:10589000DF1E082DF92C01C00E2DF601E25BFF4F33
:1058A0002DA5222309F4B1C06081718161157105B4
:1058B00019F460E070E002C06C5F7F4FC601825354
:1058C0009E4F402F5F2D21E00E94E380882309F442
:1058D0006CC04FED51E0C40ED51ED6014D915D91C7
:1058E0006D917C91ECE9F0E0CE0EDF1ED6014D9378
:1058F0005D936D937C931397E5E8FDEFCE0EDF1E6D
:10590000E6EEF1E0949108C08091C00085FFFCCFE5
:105910009093C600319694919923B1F7802F9F2DD3
:105920009C01F90107C08091C00085FFFCCF319632
:105930009093C60090819923B1F7EEEDF1E0949138
:1059400008C08091C00085FFFCCF9093C6003196BF
:1059500094919923B1F786E194E02AE030E00E9427
:10596000C5398091C00085FFFCCF8AE08093C600D6
:1059700023E832E0C20ED31ED6011D921D921D9265
:105980001C921397E0EDF1E0949108C08091C00063
:1059900085FFFCCF9093C600319694919923B1F77F
:1059A0008091C00085FFFCCF99C0ECEBF1E09491B1
:1059B00008C08091C00085FFFCCF9093C60031964F
:1059C00094919923B1F7802F9F2D9C01F90107C075
:1059D0008091C00085FFFCCF31969093C6009081E6
:1059E0009923B1F7EAEBF1E0949108C08091C000EF
:1059F00085FFFCCF9093C600319694919923B1F71F
:105A00008091C00085FFFCCF44C060817181611529
:105A1000710519F460E070E002C06C5F7F4FC60151
:105A200082539E4F402F5F2D26E50E94E3808823FE
:105A300009F033C0E6EAF1E0949108C08091C0001B
:105A400085FFFCCF9093C600319694919923B1F7CE
:105A5000802F9F2D9C01F90107C08091C00085FF18
:105A6000FCCF31969093C60090819923B1F7E4EA78
:105A7000F1E0949108C08091C00085FFFCCF909325
:105A8000C600319694919923B1F78091C00085FFAB
:105A9000FCCF8AE08093C60028C081E0F6018083B5
:105AA000E2E9F1E0949108C08091C00085FFFCCF4D
:105AB0009093C600319694919923B1F7F40107C0F1
:105AC0008091C00085FFFCCF31969093C6009081F5
:105AD0009923B1F78091C00085FFFCCF8AE08093C5
